:020000040000FA
:0A0000000200C8AF0FEFC313132274
:0F000B000202328F8C8D8A220202B6430F01222D
:10001B000202F1120459E509B408028F08C3E5097D
:10002B006480948050030200C412045D40FB1204F0
:10003B005D40EAAF091509EF14B4080050DF9000DA
:10004B005775F003A4C58325F0C5837302006F02B7
:10005B00007702007D02008502008F02009A0200E9
:10006B00A30200ADE508540125E0803FE5085402EA
:10007B008039E5085404C3138031E5085408131381
:10008B00543F8027E5085410131313541F801CE5AD
:10009B00085420C4540F8013E5085440C41354076C
:1000AB008009E5085480C413135403FFE50F54FD76
:1000BB004FF50F12001602002875090822787FE40D
:1000CB00F6D8FD75812002010F02032CE493A3F8EF
:1000DB00E493A34003F68001F208DFF48029E49354
:1000EB00A3F85407240CC8C333C4540F4420C8834B
:1000FB004004F456800146F6DFE4800B010204084D
:10010B00102040809003AFE47E019360BCA3FF54AA
:10011B003F30E509541FFEE493A360010ECF54C09A
:10012B0025E060A840B8E493A3FAE493A3F8E49322
:10013B00A3C8C582C8CAC583CAF0A3C8C582C8CA2A
:10014B00C583CADFE9DEE780BE900000E0600302F2
:10015B0001DC900001E014601C146035146049242C
:10016B0003706E12048740691204871203D8900043
:10017B00017401802C120487404F120487920012E5
:10018B00044D7F0112042112047D90000174028042
:10019B0010120487503B1204871203D8900001748D
:1001AB0003F0A294B3929422120487501C1204877A
:1001BB00920212044DE4FF12042112047DE490001C
:1001CB0001F0A294B39294002212044DE49000012A
:1001DB00F02212045D504FAF0B050BEFB40F03E48D
:1001EB00F50B1204364026E50A7010120003400589
:1001FB001204818003120484050A221200034005B5
:10020B001204848003120481E4F50A8016AF0A05F8
:10021B000AEFC394045003020481120481E4F50A2B
:10022B0012046912045922C0E0C0F0C083C082C01E
:10023B00D075D000C000C001C002C003C004C0050F
:10024B00C006C0077D2B7FFF12000E1201DD1203CB
:10025B0060D007D006D005D004D003D002D001D097
:10026B0000D0D0D082D083D0F0D0E0328F138D1459
:10027B001204817F01EFC39405502FEF24FE601110
:10028B0014601714601D240370EB1203E87F0280C7
:10029B00E4AF1312001E7F0380DBAF1412001E7F2E
:1002AB000480D21203F77F0580CB22C0E0C0F0C0E0
:1002BB0083C082C0D075D000C000C001C002C00393
:1002CB00C004C005C006C007120154D007D006D029
:1002DB0005D004D003D002D001D000D0D0D082D032
:1002EB0083D0F0D0E032C0E0C0F0C083C082C0D079
:1002FB0075D000C000C001C002C003C004C005C05F
:10030B0006C007120154D007D006D005D004D00385
:10031B00D002D001D000D0D0D082D083D0F0D0E0AA
:10032B0032E4F510120393D2AF43F601E4FF12044B
:10033B00212082FDE4FD7FFF120277E4F511F51217
:10034B00C3E51294FFE511940F50E60512E5127008
:10035B00EF051180EB1204875020050DE50DAE0C57
:10036B007002050C1464014E7010F50CF50D12049F
:10037B008DEFD394FE500312048A1204874008E4D5
:10038B00F50CF50D1204792285A713E4F5A91204D7
:10039B003F12041412044612040612042C1203C555
:1003AB008513A722010908010A00010B0041000077
:1003BB000041000100020C00000043F18075E47065
:1003CB0043880475A80643B80443F2042292037DC4
:1003DB00957FFF8F8D8D8B12046D0204751204595E
:1003EB0012046112001612045D40FB221204591212
:1003FB00046512001612045D40FB22AF887588005D
:10040B00758CFF758A2B8F8822E4F5A775A6087566
:10041B00A72075CC0822BF010443E4802253E47F5C
:10042B0022758E0275891143881022AF0FEF1313BB
:10043B00543F13227597DE7597AD22E4F5A775E34C
:10044B004022120453020471E4F58DF58B22530FF5
:10045B00FE22E50F1322430F0222430F0422530FF8
:10046B00FB2243A8082253A8F72243884022E4F535
:10047B000E2243A80422D28022C28022A287220508
:05048B000E22AF0E225D
:00000001FF
