:020000040000FA
:0A00000002020BAF16EFC313132228
:0F000B000203DA8F8C8D8A2202045E43160122D3
:10001B00020499E4F50AF50B900002E01460211438
:10002B0060271460242403600302015B120648EF6F
:10003B00D3940140069000027401F0E4900005F0A7
:10004B00120297900002EFF02212031540030201F7
:10005B00601205088E0A8F0BE50BF47003E50AF4AA
:10006B007003020159900006E0B40800400302013E
:10007B002F900083F828287302009B0200AB02002C
:10008B00BC0200CF0200E30200F502010802011CD2
:10009B00E50B5401FF900005E054FE4FF002012FD9
:1000AB00E50B540125E0FF900005E054FD4FF08077
:1000BB0073E50B540125E025E0FF900005E054FBB0
:1000CB004FF08060E50B540133333354F8FF90004D
:1000DB0005E054F74FF0804CE50B5401C454F0FF8E
:1000EB00900005E054EF4FF0803AE50B5401C43318
:1000FB0054E0FF900005E054DF4FF08027E50B54F0
:10010B0001C4333354C0FF900005E054BF4FF0805F
:10011B0013E50B5401C43333335480FF900005E0D7
:10012B00547F4FF0900006E0FF14F0EF7027740738
:10013B00F0900002E0900005B4020CE0900003F098
:10014B009000027403F022E0900004F00022800083
:10015B00E4900002F022120610E512B408028F118F
:10016B00C3E5126480948050030202071206144008
:10017B00FB12061440EAAF121512EF14B40800502C
:10018B00DF90019A75F003A4C58325F0C583730234
:10019B0001B20201BA0201C00201C80201D202017E
:1001AB00DD0201E60201F0E511540125E0803FE597
:1001BB001154028039E5115404C3138031E51154F5
:1001CB00081313543F8027E5115410131313541FB6
:1001DB00801CE5115420C4540F8013E5115440C406
:1001EB001354078009E5115480C413135403FFE51E
:1001FB001654FD4FF51612001602016B75120822EC
:10020B00787FE4F6D8FD7581200202520204D4E413
:10021B0093A3F8E493A34003F68001F208DFF48084
:10022B0029E493A3F85407240CC8C333C4540F44D4
:10023B0020C8834004F456800146F6DFE4800B01AE
:10024B0002040810204080900564E47E019360BC9A
:10025B00A3FF543F30E509541FFEE493A360010E46
:10026B00CF54C025E060A840B8E493A3FAE493A36D
:10027B00F8E493A3C8C582C8CAC583CAF0A3C8C58E
:10028B0082C8CAC583CADFE9DEE780BE900000E002
:10029B0014601A1460391460462403706A12064203
:1002AB0040651205AF9000007401F0805A120642AF
:1002BB0040131206047F011205D812063490000079
:1002CB007402F08042120604E4900000F0803812B1
:1002DB00064250331205AF9000007403F0802812D1
:1002EB000642500E1206381205AFE4900000F07F64
:1002FB000222120604E4FF1205D812063412060479
:10030B00E4900000F0FF227F0122900001E01460D6
:10031B001F1460311460482403705D12064292036F
:10032B001205AF9000017401F0A294B3929480284F
:10033B0012064292001205AF9000017402F0A295D2
:10034B00B39295801312064292011205AF900001F1
:10035B007403F0A296B39296A284B392848019127E
:10036B00064292021205AFE4900001F0A2B1B392E3
:10037B00B1A284B39284D322C322120614504FAF7E
:10038B00140514EFB40F03E4F5141205ED4026E544
:10039B00137010120003400512063C800312063F37
:1003AB00051322120003400512063F800312063C80
:1003BB00E4F5138016AF130513EFC3940450030237
:1003CB00063C12063CE4F51312062012061022C05E
:1003DB00E0C0F0C083C082C0D075D000C000C001A7
:1003EB00C002C003C004C005C006C0077D2B7FFF41
:1003FB0012000E12038512054AD007D006D005D085
:10040B0004D003D002D001D000D0D0D082D083D082
:10041B00F0D0E0328F0F8D1012063C7F01EFC394AA
:10042B0005502FEF24FE601114601714601D240378
:10043B0070EB1205917F0280E4AF0F1201617F0315
:10044B0080DBAF101201617F0480D21205A07F0503
:10045B0080CB22C0E0C0F0C083C082C0D075D0007A
:10046B00C000C001C002C003C004C005C006C00765
:10047B0012001ED007D006D005D004D003D002D076
:10048B0001D000D0D0D082D083D0F0D0E032C0E009
:10049B00C0F0C083C082C0D075D000C000C001C006
:1004AB0002C003C004C005C006C00712001ED0075F
:1004BB00D006D005D004D003D002D001D000D0D0CC
:1004CB00D082D083D0F0D0E032E4F50C12052ED2DE
:1004DB00AF43F601E4FF1205D82082FD7D0F7FF0BC
:1004EB0012041FE4F50DF50EC3E50E94FFE50D9414
:1004FB000F50E6050EE50E70EF050D80EB74FFFF58
:10050B00FE20030F20000C3001093002067E007F15
:10051B0001800F30030C300009200106200203E498
:10052B00FEFF2285A70FE4F5A91205F61205CB12E3
:10053B0005FD1205BD1205E312057E850FA72212DC
:10054B000642500C120648EFD394FE500312064598
:10055B001206424003120630220112080113000159
:10056B001400410000004100010041000200410065
:10057B0006070043F18075E47043880475A80643B1
:10058B00B80443F2042212061012061812001612B7
:10059B00061440FB2212061012061C12001612063D
:1005AB001440FB227D967FFF8F8D8D8B12062402CC
:1005BB00062CAF88758800758CFF758A2B8F882267
:1005CB00E4F5A775A60875A72075CC0822BF010412
:1005DB0043E4802253E47F22758E02758911438890
:1005EB001022AF16EF1313543F13227597DE759736
:1005FB00AD22E4F5A775E3402212060A020628E4B1
:10060B00F58DF58B225316FE22E5161322431602A7
:10061B0022431604225316FB2243A8082253A8F7A1
:10062B002243884022E4F5152243A8042253A8FB59
:10063B0022D28022C28022A28722051522AF152248
:00000001FF
