:020000040000FA
:100000000202AB900009E04401F0220204D68F8C7A
:0A0010008D8A2202055A43A8082237
:10001B00020599E4F50EF50F8E0C8F0D900003E0A1
:10002B00B4070040030201FA90003AF82828730243
:10003B00004F02006B0200800200800201A302014C
:10004B00DD0201BC12077AEFD39401400690000346
:10005B007401F0E4900004F0900009F0E04401F02A
:10006B00120337900003EFF0640560030201FF9069
:10007B00000604F02212048440030201FF12060A58
:10008B008E0E8F0FE50FF47003E50EF47003020173
:10009B0094900005E0B40800400302015B9000AFB0
:1000AB00F82828730200C70200D70200E80200FB01
:1000BB0002010F020121020134020148E50F540134
:1000CB00FF900004E054FE4FF002015BE50F54017A
:1000DB0025E0FF900004E054FD4FF08073E50F54D2
:1000EB000125E025E0FF900004E054FB4FF0806019
:1000FB00E50F540133333354F8FF900004E054F709
:10010B004FF0804CE50F5401C454F0FF900004E015
:10011B0054EF4FF0803AE50F5401C43354E0FF9095
:10012B000004E054DF4FF08027E50F5401C4333354
:10013B0054C0FF900004E054BF4FF08013E50F5400
:10014B0001C43333335480FF900004E0547F4FF0ED
:10015B00900005E0FF14F0EF60030201FF7407F05D
:10016B00900003E0B4020DA3E0900007F0900003B1
:10017B007403F022900004E0900008F090000374E8
:10018B0004F07D2B7FFF0206C5900003E090000674
:10019B00F09000037405F0221203B6900003EFF009
:1001AB00BF05069000067404F0900003E064046041
:1001BB0043E4900003F0A295B39295900006F012E1
:1001CB00074EE4FF1206EA120766900009E044109E
:1001DB00F022E4900003F0A284B3928412074EE461
:1001EB00FF1206EA120766900009E04408F022E4C9
:1001FB00900003F022120712E516B408028F15C304
:10020B00E5166480948050030202A712074840FB56
:10021B0012074840EAAF161516EF14B4080050DF6A
:10022B0090023975F003A4C58325F0C583730202D0
:10023B005102025902025F02026702027102027C42
:10024B0002028502028FE515540125E0803FE5157A
:10025B0054028039E5155404C3138031E515540855
:10026B001313543F8027E5155410131313541F8099
:10027B001CE5155420C4540F8013E5155440C413CA
:10028B0054078009E5155480C413135403FF9000E1
:10029B0009E054FD4FF012000302020A7516082202
:1002AB00787FE4F6D8FD7581200202F20205D7E4CF
:1002BB0093A3F8E493A34003F68001F208DFF480E4
:1002CB0029E493A3F85407240CC8C333C4540F4434
:1002DB0020C8834004F456800146F6DFE4800B010E
:1002EB0002040810204080900638E47E019360BC25
:1002FB00A3FF543F30E509541FFEE493A360010EA6
:10030B00CF54C025E060A840B8E493A3FAE493A3CC
:10031B00F8E493A3C8C582C8CAC583CAF0A3C8C5ED
:10032B0082C8CAC583CADFE9DEE780BE900000E061
:10033B0014601F14603B14604F2403706B1207741E
:10034B00920312077440591206C19000007401F019
:10035B0080561207749200120774401312074E7FD7
:10036B00011206EA1207669000007402F0803980D1
:10037B002F1207749201120774500B1206C19000D2
:10038B00007403F080228018120774920212077413
:10039B00500E12076A1206C1E4900000F07F022291
:1003AB00E4900000F07F05227F0122900001E01411
:1003BB00601E14603114604A240370651207745078
:1003CB0058120774920312070990000174018028D8
:1003DB00120774500F120774920012070990000154
:1003EB007402801480331207745015120774920133
:1003FB001207099000017403F0A294B39294802128
:10040B00801712077450121207749202E4900001C5
:10041B00F0A294B392947F0622E4900001F07F0542
:10042B00227F0422120748504FAF180518EFB40F64
:10043B0003E4F5181206F54026E517701012072293
:10044B00400512076E80031207710517221207224F
:10045B004005120771800312076EE4F5178016AF83
:10046B00170517EFC39404500302076E12076EE4CF
:10047B00F51712073212071222900002E014601ACD
:10048B001460271460342403703F12077492031214
:10049B0006C19000027401F0802F120774920012B3
:1004AB0006C19000027402F0801F120774920112B1
:1004BB0006C19000027403F0800F120774920212AF
:1004CB0006C1E4900002F0D322C322C0E0C0F0C00A
:1004DB0083C082C0D075D000C000C001C002C00371
:1004EB00C004C005C006C0077D2B7FFF12000E1293
:1004FB00042F120676D007D006D005D004D003D037
:10050B0002D001D000D0D0D082D083D0F0D0E03256
:10051B008F138D1412076E7F01EFC39406502FEFCC
:10052B0024FE601114601714601D240370EB120677
:10053B00A37F0280E4AF131202007F0380DBAF14B2
:10054B001202007F0480D21206B27F0680CB22C03B
:10055B00E0C0F0C083C082C0D075D000C000C00125
:10056B00C002C003C004C005C006C0077F017E00E7
:10057B0012001ED007D006D005D004D003D002D075
:10058B0001D000D0D0D082D083D0F0D0E032C0E008
:10059B00C0F0C083C082C0D075D000C000C001C005
:1005AB0002C003C004C005C006C007E4FFFE120072
:1005BB001ED007D006D005D004D003D002D001D076
:1005CB0000D0D0D082D083D0F0D0E032E4F510123E
:1005DB00065AC2A3D2AFE4FF1206EA2082FD7D0FBA
:1005EB007FF012051BE4F511F512C3E51294FFE53C
:1005FB001194FF50E60512E51270EF051180EB74B4
:10060B00FFFFFE20030F20000C3001093002067E95
:10061B00007F01800F30030C3000092001062002FF
:10062B0003E4FEFFC203C200C201C202220116088C
:10063B0001170001180041000600410000004100B5
:10064B000100410002004100030041000507008545
:10065B00A713E4F5A912073A1206DD120741120699
:10066B00CF1206FF1206908513A722120774500CA7
:10067B0012077AEFD394FE500312077712077440D8
:10068B00031207622243F18075E47043880475A856
:10069B000643B80443F2042212071212071A12007F
:1006AB000312074840FB2212071212072A120003FB
:1006BB0012074840FB227D967FFF8F8D8D8B12009A
:1006CB001602075EAF88758800758CFF758A2B8FB5
:1006DB008822E4F5A775A60875A72075CC0822BF5C
:1006EB00010443E4802253E47F22900009E01313BA
:1006FB00543F1322758E02758911438810227D2B6E
:10070B007FFF8F8D8D8B22900009E054FEF022909D
:10071B000009E04402F022900009E0C31313229079
:10072B000009E04404F022900009E054FBF022752C
:10073B0097DE7597AD22E4F5A775E340229000098B
:10074B00E0132212075402075AE4F58DF58B22535E
:10075B00A8F72243884022E4F5192243A804225328
:10076B00A8FB22D28022C28022A28722051922AFA7
:02077B00192241
:00000001FF
