:020000040000FA
:1000000002033C90000AE04401F0220204E88F8CD5
:0A0010008D8A220205AF43A80822E2
:10001B0002052DE4F50EF50F8E0C8F0D900004E00C
:10002B00B4070040030201F590003AF82828730248
:10003B00004F02006B0200800200800201A302014C
:10004B00DD0201BC1207C6EFD394014006900004F9
:10005B007401F0E4900005F090000AF0E04401F028
:10006B001202A6900004EFF0640560030201FA90FF
:10007B00000704F02212049640030201FA120655FF
:10008B008E0E8F0FE50FF47003E50EF47003020173
:10009B0094900006E0B40800400302015B9000AFAF
:1000AB00F82828730200C70200D70200E80200FB01
:1000BB0002010F020121020134020148E50F540134
:1000CB00FF900005E054FE4FF002015BE50F540179
:1000DB0025E0FF900005E054FD4FF08073E50F54D1
:1000EB000125E025E0FF900005E054FB4FF0806018
:1000FB00E50F540133333354F8FF900005E054F708
:10010B004FF0804CE50F5401C454F0FF900005E014
:10011B0054EF4FF0803AE50F5401C43354E0FF9095
:10012B000005E054DF4FF08027E50F5401C4333353
:10013B0054C0FF900005E054BF4FF08013E50F54FF
:10014B0001C43333335480FF900005E0547F4FF0EC
:10015B00900006E0FF14F0EF60030201FA7407F061
:10016B00900004E0B4020DA3E0900008F0900004AE
:10017B007403F022900005E0900009F090000474E5
:10018B0004F07D2B7FFF020701900004E090000735
:10019B00F09000047405F0221203C8900004EFF0F5
:1001AB00BF05069000077404F0900004E06404603F
:1001BB003EE4900004F0A295B39295900007F012E4
:1001CB00079EE4FF12073312078390000AE04410E6
:1001DB00F022E4900004F012079EE4FF12073312A2
:1001EB00078390000AE04408F022E4900004F02218
:1001FB0012075BE514B408028F13C3E514648094F3
:10020B008050030202A212079840FB12079840EAA3
:10021B00AF141514EF14B4080050DF90023475F0CE
:10022B0003A4C58325F0C5837302024C020254025A
:10023B00025A02026202026C02027702028002027E
:10024B008AE513540125E0803FE51354028039E51C
:10025B00135404C3138031E51354081313543F8014
:10026B0027E5135410131313541F801CE51354204C
:10027B00C4540F8013E5135440C41354078009E58D
:10028B00135480C413135403FF90000AE054FD4F22
:10029B00F012000302020575140822900001E0B46D
:1002AB00010AA284B392841207C09203900000E06B
:1002BB0014601F14603B14604F240370711207C04D
:1002CB0092031207C0405F1206FD9000007401F00C
:1002DB00805C1207C092001207C0401312079E7F6A
:1002EB00011207331207839000007402F0803F80E5
:1002FB00351207C092011207C0500B1206FD900079
:10030B00007403F08028801E1207C092021207C0EF
:10031B005014900001E004F01207B61206FDE490B1
:10032B000000F07F0222E4900000F07F05227F01A5
:10033B0022787FE4F6D8FD7581200203830205EE57
:10034B00E493A3F8E493A34003F68001F208DFF4EF
:10035B008029E493A3F85407240CC8C333C4540F67
:10036B004420C8834004F456800146F6DFE4800B3A
:10037B000102040810204080900683E47E01936004
:10038B00BCA3FF543F30E509541FFEE493A3600167
:10039B000ECF54C025E060A840B8E493A3FAE493D1
:1003AB00A3F8E493A3C8C582C8CAC583CAF0A3C87F
:1003BB00C582C8CAC583CADFE9DEE780BE900002EA
:1003CB00E014601E14603114604A24037065120738
:1003DB00C050581207C092031207529000027401CA
:1003EB0080281207C0500F1207C0920012075290BC
:1003FB0000027402801480331207C050151207C01C
:10040B0092011207529000027403F0A296B39296D7
:10041B00802180171207C050121207C09202E4907D
:10042B000002F0A296B392967F0622E4900002F0AF
:10043B007F05227F0422120798504FAF160516EF47
:10044B00B40F03E4F51612073E4026E515701012A3
:10045B00076B40051207BA80031207BD0515221260
:10046B00076B40051207BD80031207BAE4F5158030
:10047B0016AF150515EFC3940450030207BA120704
:10048B00BAE4F51512077B12075B22900003E01408
:10049B00601A1460271460342403703F1207C09253
:1004AB00031206FD9000037401F0802F1207C09217
:1004BB00001206FD9000037402F0801F1207C09219
:1004CB00011206FD9000037403F0800F1207C09217
:1004DB00021206FDE4900003F0D322C322C0E0C059
:1004EB00F0C083C082C0D075D000C000C001C00274
:1004FB00C003C004C005C006C0077D2B7FFF1200E0
:10050B000E1204411206C5D007D006D005D004D078
:10051B0003D002D001D000D0D0D082D083D0F0D085
:10052B00E032C0E0C0F0C083C082C0D075D000C044
:10053B0000C001C002C003C004C005C006C007A2B2
:10054B00B1B392B1E4FFFE12001ED007D006D00566
:10055B00D004D003D002D001D000D0D0D082D08331
:10056B00D0F0D0E0328F118D121207BA7F01EFC39A
:10057B009406502FEF24FE601114601714601D2495
:10058B000370EB1206DF7F0280E4AF111201FB7FD9
:10059B000380DBAF121201FB7F0480D21206EE7FC9
:1005AB000680CB22C0E0C0F0C083C082C0D075D023
:1005BB0000C000C001C002C003C004C005C006C01B
:1005CB00077F017E0012001ED007D006D005D00495
:1005DB00D003D002D001D000D0D0D082D083D0F0C5
:1005EB00D0E032E4F5101206A9C2A35388F7D2AFBC
:1005FB00D2AF2082157D0F7FF0120570E4FFFE0F46
:10060B00BF00010EBEFFF8BFFFF512079850E312B3
:10061B00075B7FFF12062480D98F111207BA7F0167
:10062B00EFC394065023EF24FD600E1460142403D3
:10063B0070EE1206DF7F0380E7AF111201FB7F0420
:10064B0080DE1206EE7F0680D72274FFFFFE2003AA
:10065B000F20000C3001093002067E007F01800F55
:10066B0030030C300009200106200203E4FEFFC218
:10067B0003C200C201C202220114080115000116B7
:10068B000041000700410000004100010041000251
:10069B00004100030041000400410006070085A74C
:1006AB0011E4F5A912078A12071912079112070B09
:1006BB001207481207268511A7221207C0500C12E9
:1006CB0007C6EFD394FE50031207C31207C04003B3
:1006DB001207B22212075B1207631200031207986C
:1006EB0040FB2212075B120773120003120798409C
:1006FB00FB227D967FFF8F8D8D8B1200160207AE2E
:10070B00AF88758800758CFF758A2B8F8822E4F56E
:10071B00A775A60875A72075CC082243F18075E450
:10072B007043880475A80622BF010443E48022535A
:10073B00E47F2290000AE01313543F1322758E02BC
:10074B00758911438810227D2B7FFF8F8D8D8B2216
:10075B0090000AE054FEF02290000AE04402F022DE
:10076B0090000AE0C313132290000AE04404F02225
:10077B0090000AE054FBF0225388F743A80422753B
:10078B0097DE7597AD22E4F5A775E3402290000A3A
:10079B00E013221207A40207AAE4F58DF58B22536E
:1007AB00A8F72243884022E4F5172253A8FB22D254
:0E07BB008022C28022A28722051722AF1722B9
:00000001FF
