:020000040000FA
:1000000002033C90000AE04401F0220204E88F8CD5
:0A0010008D8A2202056C43A8082225
:10001B000205ABE4F50EF50F8E0C8F0D900004E08E
:10002B00B4070040030201F590003AF82828730248
:10003B00004F02006B0200800200800201A302014C
:10004B00DD0201BC12078DEFD39401400690000432
:10005B007401F0E4900005F090000AF0E04401F028
:10006B001202A6900004EFF0640560030201FA90FF
:10007B00000704F02212049640030201FA12061C38
:10008B008E0E8F0FE50FF47003E50EF47003020173
:10009B0094900006E0B40800400302015B9000AFAF
:1000AB00F82828730200C70200D70200E80200FB01
:1000BB0002010F020121020134020148E50F540134
:1000CB00FF900005E054FE4FF002015BE50F540179
:1000DB0025E0FF900005E054FD4FF08073E50F54D1
:1000EB000125E025E0FF900005E054FB4FF0806018
:1000FB00E50F540133333354F8FF900005E054F708
:10010B004FF0804CE50F5401C454F0FF900005E014
:10011B0054EF4FF0803AE50F5401C43354E0FF9095
:10012B000005E054DF4FF08027E50F5401C4333353
:10013B0054C0FF900005E054BF4FF08013E50F54FF
:10014B0001C43333335480FF900005E0547F4FF0EC
:10015B00900006E0FF14F0EF60030201FA7407F061
:10016B00900004E0B4020DA3E0900008F0900004AE
:10017B007403F022900005E0900009F090000474E5
:10018B0004F07D2B7FFF0206C8900004E09000076F
:10019B00F09000047405F0221203C8900004EFF0F5
:1001AB00BF05069000077404F0900004E06404603F
:1001BB003EE4900004F0A295B39295900007F012E4
:1001CB000765E4FF1206FA12074A90000AE0441092
:1001DB00F022E4900004F0120765E4FF1206FA1215
:1001EB00074A90000AE04408F022E4900004F02251
:1001FB00120722E516B408028F15C3E51664809426
:10020B008050030202A212075F40FB12075F40EA15
:10021B00AF161516EF14B4080050DF90023475F0CA
:10022B0003A4C58325F0C5837302024C020254025A
:10023B00025A02026202026C02027702028002027E
:10024B008AE515540125E0803FE51554028039E518
:10025B00155404C3138031E51554081313543F8010
:10026B0027E5155410131313541F801CE515542048
:10027B00C4540F8013E5155440C41354078009E58B
:10028B00155480C413135403FF90000AE054FD4F20
:10029B00F012000302020575160822900001E0B46B
:1002AB00010AA284B392841207879203900000E0A4
:1002BB0014601F14603B14604F2403707112078786
:1002CB009203120787405F1206C49000007401F07E
:1002DB00805C120787920012078740131207657F15
:1002EB00011206FA12074A9000007402F0803F8058
:1002FB00351207879201120787500B1206C4900024
:10030B00007403F08028801E120787920212078761
:10031B005014900001E004F012077D1206C4E49023
:10032B000000F07F0222E4900000F07F05227F01A5
:10033B0022787FE4F6D8FD7581200203830205E95C
:10034B00E493A3F8E493A34003F68001F208DFF4EF
:10035B008029E493A3F85407240CC8C333C4540F67
:10036B004420C8834004F456800146F6DFE4800B3A
:10037B00010204081020408090064AE47E0193603D
:10038B00BCA3FF543F30E509541FFEE493A3600167
:10039B000ECF54C025E060A840B8E493A3FAE493D1
:1003AB00A3F8E493A3C8C582C8CAC583CAF0A3C87F
:1003BB00C582C8CAC583CADFE9DEE780BE900002EA
:1003CB00E014601E14603114604A24037065120738
:1003DB008750581207879203120719900002740175
:1003EB008028120787500F12078792001207199067
:1003FB00000274028014803312078750151207878E
:10040B0092011207199000027403F0A296B3929610
:10041B008021801712078750121207879202E490EF
:10042B000002F0A296B392967F0622E4900002F0AF
:10043B007F05227F042212075F504FAF180518EF7C
:10044B00B40F03E4F5181207054026E517701012D8
:10045B000732400512078180031207840517221209
:10046B00073240051207848003120781E4F51780D9
:10047B0016AF170517EFC394045003020781120739
:10048B0081E4F51712074212072222900003E014B1
:10049B00601A1460271460342403703F120787928C
:1004AB00031206C49000037401F0802F1207879289
:1004BB00001206C49000037402F0801F120787928B
:1004CB00011206C49000037403F0800F1207879289
:1004DB00021206C4E4900003F0D322C322C0E0C092
:1004EB00F0C083C082C0D075D000C000C001C00274
:1004FB00C003C004C005C006C0077D2B7FFF1200E0
:10050B000E12044112068CD007D006D005D004D0B1
:10051B0003D002D001D000D0D0D082D083D0F0D085
:10052B00E0328F138D141207817F01EFC3940650B5
:10053B002FEF24FE601114601714601D240370EB61
:10054B001206A67F0280E4AF131201FB7F0380DB50
:10055B00AF141201FB7F0480D21206B57F0680CB4D
:10056B0022C0E0C0F0C083C082C0D075D000C000F4
:10057B00C001C002C003C004C005C006C0077F0194
:10058B007E0012001ED007D006D005D004D003D0B9
:10059B0002D001D000D0D0D082D083D0F0D0E032C6
:1005AB00C0E0C0F0C083C082C0D075D000C000C016
:1005BB0001C002C003C004C005C006C007E4FFFEB3
:1005CB0012001ED007D006D005D004D003D002D025
:1005DB0001D000D0D0D082D083D0F0D0E032E4F57F
:1005EB0010120670C2A35388F7D2AFD2AF2082FD90
:1005FB007D0F7FF012052DE4F511F512C3E5129472
:10060B00FFE51194FF50E60512E51270EF0511801E
:10061B00EB74FFFFFE20030F20000C3001093002AA
:10062B00067E007F01800F30030C3000092001068D
:10063B00200203E4FEFFC203C200C201C202220178
:10064B0016080117000118004100070041000000C7
:10065B004100010041000200410003004100040081
:10066B00410006070085A713E4F5A91207511206EE
:10067B00E01207581206D212070F1206ED8513A7C8
:10068B0022120787500C12078DEFD394FE500312E2
:10069B00078A1207874003120779221207221207D3
:1006AB002A12000312075F40FB2212072212073A9D
:1006BB0012000312075F40FB227D967FFF8F8D8D0B
:1006CB008B120016020775AF88758800758CFF7545
:1006DB008A2B8F8822E4F5A775A60875A72075CC01
:1006EB00082243F18075E47043880475A80622BF85
:1006FB00010443E4802253E47F2290000AE01313A9
:10070B00543F1322758E02758911438810227D2B5D
:10071B007FFF8F8D8D8B2290000AE054FEF022908C
:10072B00000AE04402F02290000AE0C31313229067
:10073B00000AE04404F02290000AE054FBF022533C
:10074B0088F743A804227597DE7597AD22E4F5A7C9
:10075B0075E3402290000AE0132212076B02077127
:10076B00E4F58DF58B2253A8F72243884022E4F55C
:10077B00192253A8FB22D28022C28022A2872205F3
:05078B001922AF192244
:00000001FF
