:020000040000FA
:100000000202AF900009E04401F0220204D28F8C7A
:0A0010008D8A2202051743A808227A
:10001B000205588D0DE4F510F5118E0E8F0F900023
:10002B0003E0B4070040030201FE90003CF82828CF
:10003B007302005102006D0200820200820201ADC8
:10004B000201E60201C61207BCEFD39401400690F1
:10005B0000037401F0E4900004F0900009F0E04418
:10006B0020F012033B900003EFF0640560030202E3
:10007B000390000604F022120480400302020312D4
:10008B00063E8E108F11E511F47003E510F470032A
:10009B0002019E900005E0B40800400302015D9050
:1000AB0000B1F82828730200C90200D90200EA0245
:1000BB0000FD02011102012302013602014AE51182
:1000CB005401FF900004E054FE4FF002015DE51176
:1000DB00540125E0FF900004E054FD4FF08073E5E0
:1000EB0011540125E025E0FF900004E054FB4FF094
:1000FB008060E511540133333354F8FF900004E072
:10010B0054F74FF0804CE5115401C454F0FF9000AC
:10011B0004E054EF4FF0803AE5115401C43354E03E
:10012B00FF900004E054DF4FF08027E5115401C429
:10013B00333354C0FF900004E054BF4FF08013E5FD
:10014B00115401C43333335480FF900004E0547FC7
:10015B004FF0900005E0FF14F0EF60030202037410
:10016B0007F0900003E0B40215A3E0900007F0E560
:10017B000D90000370047403F0227404F0229000BD
:10018B0004E0900008F09000037404F07D2B7FFFD7
:10019B000206E6900003E0900006F0900003740561
:1001AB00F0221203BA900003EFF0BF050690000691
:1001BB007404F0900003E06404603DE4900003F0ED
:1001CB00900006F0120794E4FF12071812077990BB
:1001DB000009E04410F0E054DFF022E4900003F05B
:1001EB00120794E4FF120718120779900009E044F4
:1001FB0008F022E4900003F022120749E516B40838
:10020B00028F15C3E5166480948050030202AB1273
:10021B00078E40FB12078E40EAAF161516EF14B48B
:10022B00080050DF90023D75F003A4C58325F0C58F
:10023B00837302025502025D02026302026B020229
:10024B0075020280020289020293E515540125E032
:10025B00803FE51554028039E5155404C3138031F2
:10026B00E51554081313543F8027E5155410131349
:10027B0013541F801CE5155420C4540F8013E5152F
:10028B005440C41354078009E5155480C413135408
:10029B0003FF900009E054FD4FF012000302020E21
:1002AB0075160822787FE4F6D8FD7581200202F6D8
:1002BB000205D7E493A3F8E493A34003F68001F27D
:1002CB0008DFF48029E493A3F85407240CC8C33344
:1002DB00C4540F4420C8834004F456800146F6DF13
:1002EB00E4800B010204081020408090066CE47E31
:1002FB00019360BCA3FF543F30E509541FFEE49308
:10030B00A360010ECF54C025E060A840B8E493A3CE
:10031B00FAE493A3F8E493A3C8C582C8CAC583CAF9
:10032B00F0A3C8C582C8CAC583CADFE9DEE780BEB1
:10033B00900000E014601F14603B14604F240370A6
:10034B006B1207B692031207B640591206E29000E1
:10035B00007401F080561207B692001207B64013D4
:10036B001207947F0112071812077990000074028C
:10037B00F08039802F1207B692011207B6500B127C
:10038B0006E29000007403F0802280181207B692E8
:10039B00021207B6500E1207AC1206E2E4900000F0
:1003AB00F07F0222E4900000F07F05227F01229073
:1003BB000001E014601F1460331460472403705D68
:1003CB001207B650501207B692031207379000016E
:1003DB007401F080481207B650101207B692001243
:1003EB0007379000017402F0803380291207B65052
:1003FB00101207B692011207379000017403F080B8
:10040B001C80121207B6500D1207B69202E4900030
:10041B0001F07F0622E4900001F07F05227F042289
:10042B0012078E504FAF180518EFB40F03E4F518F1
:10043B001207234026E517701012075940051207C3
:10044B00B080031207B30517221207594005120794
:10045B00B380031207B0E4F5178016AF170517EF3B
:10046B00C3940450030207B01207B0E4F517120748
:10047B006912074922900002E014601A14602714D5
:10048B0060342403703F1207B692031206E2900009
:10049B00027401F0802F1207B692001206E2900050
:1004AB00027402F0801F1207B692011206E290004E
:1004BB00027403F0800F1207B692021206E2E49068
:1004CB000002F0D322C322C0E0C0F0C083C082C0C0
:1004DB00D075D000C000C001C002C003C004C0056D
:1004EB00C006C0077D2B7FFF12000E12042B1206D5
:1004FB00AAD007D006D005D004D003D002D001D0AB
:10050B0000D0D0D082D083D0F0D0E032C0E0C0F0A9
:10051B00C083C082C0D075D000C000C001C002C073
:10052B0003C004C005C006C0077D017F017E001219
:10053B00001ED007D006D005D004D003D002D001C6
:10054B00D000D0D0D082D083D0F0D0E032C0E0C089
:10055B00F0C083C082C0D075D000C000C001C00203
:10056B00C003C004C005C006C0077D01E4FFFE1236
:10057B00001ED007D006D005D004D003D002D00186
:10058B00D000D0D0D082D083D0F0D0E0328F138D7A
:10059B00141207B07F01EFC39406502FEF24FE60B7
:1005AB001114601714601D240370EB1206C47F0234
:1005BB0080E4AF131202047F0380DBAF141202043A
:1005CB007F0480D21206D37F0680CB22E4F5121271
:1005DB00068EC2A35388F7D2AFD2AF2082157D0F00
:1005EB007FF0120598E4FFFE0FBF00010EBEFFF86F
:1005FB00BFFFF512074050E31207717FFF12060D84
:10060B0080D98F131207B07F01EFC394065023EFED
:10061B0024FD600E146014240370EE1206C47F03D5
:10062B0080E7AF131202047F0480DE1206D37F062D
:10063B0080D72274FFFFFE20030F20000C3001092E
:10064B003002067E007F01800F30030C3000092042
:10065B000106200203E4FEFFC203C200C201C20274
:10066B002201160801170001180041000600410085
:10067B000000410001004100020041000300410065
:10068B0005070085A713E4F5A91207801206FE12D1
:10069B0007871206F012072D12070B8513A72212DC
:1006AB0007B6500C1207BCEFD394FE50031207B9D8
:1006BB001207B640031207A822120749120751125C
:1006CB00000312078E40FB2212074912076112002A
:1006DB000312078E40FB227D967FFF8F8D8D8B1231
:1006EB0000160207A4AF88758800758CFF758A2BDE
:1006FB008F8822E4F5A775A60875A72075CC08226C
:10070B0043F18075E47043880475A80622BF010489
:10071B0043E4802253E47F22900009E01313543FFB
:10072B001322758E02758911438810227D2B7FFF52
:10073B008F8D8D8B22900009E0C4540F13229000F3
:10074B0009E054FEF022900009E04402F0229000F0
:10075B0009E0C3131322900009E04404F022900037
:10076B0009E054FBF022900009E054EFF02253888B
:10077B00F743A804227597DE7597AD22E4F5A775AC
:10078B00E34022900009E0132212079A0207A0E42B
:10079B00F58DF58B2253A8F72243884022E4F519F7
:1007AB002253A8FB22D28022C28022A287220519C3
:0407BB0022AF19222E
:00000001FF
