:020000040000FA
:0A0000000202FDAF16EFC313132236
:0F000B000204CC8F8C8D8A2202055043160122ED
:10001B0002058BE4F50AF50B900002E01460241442
:10002B00602A1470030201542403600302024D1270
:10003B00073AEFD3940140069000027401F0E4906C
:10004B000005F0120389900002EFF0221204074022
:10005B00030202521205FA8E0A8F0BE50BF47003A2
:10006B00E50AF47003020151900006E0B408004069
:10007B0003020132900086F828287302009E0200CA
:10008B00AE0200BF0200D20200E60200F802010B32
:10009B0002011FE50B5401FF900005E054FE4FF0E9
:1000AB00020132E50B540125E0FF900005E054FD01
:1000BB004FF08073E50B540125E025E0FF90000520
:1000CB00E054FB4FF08060E50B540133333354F8AD
:1000DB00FF900005E054F74FF0804CE50B5401C442
:1000EB0054F0FF900005E054EF4FF0803AE50B54CD
:1000FB0001C43354E0FF900005E054DF4FF080273C
:10010B00E50B5401C4333354C0FF900005E054BFDA
:10011B004FF08013E50B5401C43333335480FF90FD
:10012B000005E0547F4FF0900006E0FF14F0EF6005
:10013B00030202527407F0900005E0900003F09068
:10014B0000027403F02202024D1204074003020264
:10015B00521205FA8E0A8F0BE50BF47003E50AF4C5
:10016B007003020246900006E0B40800400302024E
:10017B002F900183F828287302019B0201AB020127
:10018B00BC0201CF0201E30201F502020802021CCC
:10019B00E50B5401FF900005E054FE4FF002022FD7
:1001AB00E50B540125E0FF900005E054FD4FF08076
:1001BB0073E50B540125E025E0FF900005E054FBAF
:1001CB004FF08060E50B540133333354F8FF90004C
:1001DB0005E054F74FF0804CE50B5401C454F0FF8D
:1001EB00900005E054EF4FF0803AE50B5401C43317
:1001FB0054E0FF900005E054DF4FF08027E50B54EF
:10020B0001C4333354C0FF900005E054BF4FF0805E
:10021B0013E50B5401C43333335480FF900005E0D6
:10022B00547F4FF0900006E0FF14F0EF7019740745
:10023B00F0900005E0900004F00022E4900002F042
:10024B000022E4900002F022120702E512B4080229
:10025B008F11C3E5126480948050030202F91207D8
:10026B000640FB12070640EAAF121512EF14B40852
:10027B000050DF90028C75F003A4C58325F0C58375
:10028B00730202A40202AC0202B20202BA0202C45C
:10029B000202CF0202D80202E2E511540125E080EE
:1002AB003FE51154028039E5115404C3138031E545
:1002BB001154081313543F8027E5115410131313D3
:1002CB00541F801CE5115420C4540F8013E51154A6
:1002DB0040C41354078009E5115480C4131354030D
:1002EB00FFE51654FD4FF51612001602025D75124E
:1002FB000822787FE4F6D8FD7581200203440205BD
:10030B00C6E493A3F8E493A34003F68001F208DF5D
:10031B00F48029E493A3F85407240CC8C333C454C2
:10032B000F4420C8834004F456800146F6DFE48076
:10033B000B0102040810204080900656E47E0193C6
:10034B0060BCA3FF543F30E509541FFEE493A36048
:10035B00010ECF54C025E060A840B8E493A3FAE4A3
:10036B0093A3F8E493A3C8C582C8CAC583CAF0A3F4
:10037B00C8C582C8CAC583CADFE9DEE780BE900064
:10038B0000E014601A1460391460462403706A127A
:10039B00073440651206A19000007401F0805A12D8
:1003AB00073440131206F67F011206CA1207269075
:1003BB0000007402F080421206F6E4900000F08018
:1003CB003812073450331206A19000007403F080EA
:1003DB0028120734500E12072A1206A1E4900000CF
:1003EB00F07F02221206F6E4FF1206CA120726124B
:1003FB0006F6E4900000F0FF227F0122900001E05E
:10040B0014601F1460311460482403705D120734AC
:10041B0092031206A19000017401F0A294B392947E
:10042B00802812073492001206A19000017402F08A
:10043B00A295B39295801312073492011206A190E4
:10044B0000017403F0A296B39296A284B3928480B7
:10045B001912073492021206A1E4900001F0A2B126
:10046B00B392B1A284B39284D322C3221207065053
:10047B004FAF140514EFB40F03E4F5141206DF406D
:10048B0026E5137010120003400512072E8003128D
:10049B0007310513221200034005120731800312A6
:1004AB00072EE4F5138016AF130513EFC394045016
:1004BB000302072E12072EE4F5131207121207027E
:1004CB0022C0E0C0F0C083C082C0D075D000C00095
:1004DB00C001C002C003C004C005C006C0077D2B0D
:1004EB007FFF12000E12047712063CD007D006D005
:1004FB0005D004D003D002D001D000D0D0D082D010
:10050B0083D0F0D0E0328F0F8D1012072E7F01EFCA
:10051B00C39405502FEF24FE601114601714601D57
:10052B00240370EB1206837F0280E4AF0F12025399
:10053B007F0380DBAF101202537F0480D21206922E
:10054B007F0580CB22C0E0C0F0C083C082C0D075D5
:10055B00D000C000C001C002C003C004C005C0066B
:10056B00C00712001ED007D006D005D004D003D090
:10057B0002D001D000D0D0D082D083D0F0D0E032E6
:10058B00C0E0C0F0C083C082C0D075D000C000C036
:10059B0001C002C003C004C005C006C00712001E84
:1005AB00D007D006D005D004D003D002D001D000A4
:1005BB00D0D0D082D083D0F0D0E032E4F50C12064C
:1005CB0020D2AF43F601E4FF1206CA2082FD7D0F55
:1005DB007FF0120511E4F50DF50EC3E50E94FFE562
:1005EB000D940F50E6050EE50E70EF050D80EB74C4
:1005FB00FFFFFE20030F20000C3001093002067EA6
:10060B00007F01800F30030C30000920010620020F
:10061B0003E4FEFF2285A70FE4F5A91206E81206F4
:10062B00BD1206EF1206AF1206D5120670850FA784
:10063B0022120734500C12073AEFD394FE500312D8
:10064B000737120734400312072222011208011345
:10065B0000011400410000004100010041000200B4
:10066B00410006070043F18075E47043880475A8C8
:10067B000643B80443F2042212070212070A1200BF
:10068B001612070640FB2212070212070E12001663
:10069B0012070640FB227D967FFF8F8D8D8B1207F5
:1006AB001602071EAF88758800758CFF758A2B8F15
:1006BB008822E4F5A775A60875A72075CC0822BF7C
:1006CB00010443E4802253E47F22758E0275891165
:1006DB0043881022AF16EF1313543F13227597DE86
:1006EB007597AD22E4F5A775E340221206FC0207CD
:1006FB001AE4F58DF58B225316FE22E516132243D1
:10070B00160222431604225316FB2243A808225337
:10071B00A8F72243884022E4F5152243A80422536C
:10072B00A8FB22D28022C28022A28722051522AFEB
:02073B00152285
:00000001FF
