:020000040000FA
:0A0000000200C8AF0FEFC313132274
:10000B000201A98F8C8D8A2202022D8F8D8D8B225E
:10001B000202681203E2E509B408028F08C3E5097E
:10002B006480948050030200C41203E640FB120369
:10003B00E640EAAF091509EF14B4080050DF900051
:10004B005775F003A4C58325F0C5837302006F02B7
:10005B00007702007D02008502008F02009A0200E9
:10006B00A30200ADE508540125E0803FE5085402EA
:10007B008039E5085404C3138031E5085408131381
:10008B00543F8027E5085410131313541F801CE5AD
:10009B00085420C4540F8013E5085440C41354076C
:1000AB008009E5085480C413135403FFE50F54FD76
:1000BB004FF50F1203DE02002875090822787FE442
:1000CB00F6D8FD75812002010F0202A3E493A3F879
:1000DB00E493A34003F68001F208DFF48029E49354
:1000EB00A3F85407240CC8C333C4540F4420C8834B
:1000FB004004F456800146F6DFE4800B010204084D
:10010B0010204080900350E47E019360BCA3FF5409
:10011B003F30E509541FFEE493A360010ECF54C09A
:10012B0025E060A840B8E493A3FAE493A3F8E49322
:10013B00A3C8C582C8CAC583CAF0A3C8C582C8CA2A
:10014B00C583CADFE9DEE780BE1203E6504FAF0B73
:10015B00050BEFB40F03E4F50B1203C74026E50ABA
:10016B0070101200034005120402800312040505EF
:10017B000A2212000340051204058003120402E454
:10018B00F50A8016AF0A050AEFC394045003020464
:10019B0002120402E4F50A1203F21203E222C0E097
:1001AB00C0F0C083C082C0D075D000C000C001C0F9
:1001BB0002C003C004C005C006C0077D2B7FFF1221
:1001CB00000E1201541202D7D007D006D005D0046E
:1001DB00D003D002D001D000D0D0D082D083D0F0C9
:1001EB00D0E0328F138D141204027F01EFC39405FC
:1001FB00502FEF24FE601114601714601D24037040
:10020B00EB1203797F0280E4AF1312001E7F038091
:10021B00DBAF1412001E7F0480D21203887F05808F
:10022B00CB22C0E0C0F0C083C082C0D075D000C06C
:10023B0000C001C002C003C004C005C006C0071245
:10024B00030AD007D006D005D004D003D002D001CA
:10025B00D000D0D0D082D083D0F0D0E032C0E0C07C
:10026B00F0C083C082C0D075D000C000C001C002F6
:10027B00C003C004C005C006C00712030AD007D0D4
:10028B0006D005D004D003D002D001D000D0D0D0FE
:10029B0082D083D0F0D0E032E4F510120334D2AF29
:1002AB0043F601E4FF1203B22082FDE4FD7FFF124F
:1002BB0001EEE4F511F512C3E51294FFE511940F6D
:1002CB0050E60512E51270EF051180EB1204085091
:1002DB0020050DE50DAE0C7002050C1464014E707B
:1002EB0010F50CF50D12040EEFD394FE500312040F
:1002FB000B1204084008E4F50CF50D1203FE2290D6
:10030B000000E07023900001E0701D1204084018FB
:10031B0012040892037D2B7FFF1200161203F612B4
:10032B0003FA9000017401F02285A713E4F5A912DA
:10033B0003D01203A51203D71203971203BD1203A6
:10034B00668513A722010908010A00010B00410071
:10035B00000041000100020C00000043F18075E435
:10036B007043880475A80643B80443F204221203B1
:10037B00E21203EA1203DE1203E640FB221203E24F
:10038B001203EE1203DE1203E640FB22AF887588E0
:10039B0000758CFF758A2B8F8822E4F5A775A6084C
:1003AB0075A72075CC0822BF010443E4802253E4D7
:1003BB007F22758E0275891143881022AF0FEF13C0
:1003CB0013543F13227597DE7597AD22E4F5A7758D
:1003DB00E34022430F0122530FFE22E50F1322436A
:1003EB000F0222430F0422530FFB2243A808224380
:1003FB00884022E4F50E22D28022C28022A28722DC
:06040B00050E22AF0E22D7
:00000001FF
