:020000040000FA
:100000000203A5900009E04401F0220206108F8C43
:0A0010008D8A2202065543A808223B
:10001B000206968D0DE4F510F5118E0E8F0F9000E4
:10002B0003E0B4070040030201FE90003CF82828CF
:10003B007302005102006D0200820200820201ADC8
:10004B000201E60201C61208A8EFD3940140069004
:10005B0000037401F0E4900004F0900009F0E04418
:10006B0020F0120431900003EFF0640560030202EC
:10007B000390000604F022120576400302020312DD
:10008B0007158E108F11E511F47003E510F4700352
:10009B0002019E900005E0B40800400302015D9050
:1000AB0000B1F82828730200C90200D90200EA0245
:1000BB0000FD02011102012302013602014AE51182
:1000CB005401FF900004E054FE4FF002015DE51176
:1000DB00540125E0FF900004E054FD4FF08073E5E0
:1000EB0011540125E025E0FF900004E054FB4FF094
:1000FB008060E511540133333354F8FF900004E072
:10010B0054F74FF0804CE5115401C454F0FF9000AC
:10011B0004E054EF4FF0803AE5115401C43354E03E
:10012B00FF900004E054DF4FF08027E5115401C429
:10013B00333354C0FF900004E054BF4FF08013E5FD
:10014B00115401C43333335480FF900004E0547FC7
:10015B004FF0900005E0FF14F0EF60030202037410
:10016B0007F0900003E0B40215A3E0900007F0E560
:10017B000D90000370047403F0227404F0229000BD
:10018B0004E0900008F09000037404F07D2B7FFFD7
:10019B000207BD900003E0900006F0900003740589
:1001AB00F0221204B0900003EFF0BF05069000069A
:1001BB007404F0900003E06404603DE4900003F0ED
:1001CB00900006F0120880E4FF1207EF1208589017
:1001DB000009E04410F0E054DFF022E4900003F05B
:1001EB00120880E4FF1207EF120858900009E04450
:1001FB0008F022E4900003F022E709F608DFFA800A
:10020B0046E709F208DFFA803E88828C83E709F023
:10021B00A3DFFA8032E309F608DFFA8078E309F20C
:10022B0008DFFA807088828C83E309F0A3DFFA8001
:10023B006489828A83E0A3F608DFFA805889828A70
:10024B0083E0A3F208DFFA804C80D280FA80C6806C
:10025B00D4806980F28033801080A680EA809A80F7
:10026B00A880DA80E280CA803389828A83ECFAE440
:10027B0093A3C8C582C8CCC583CCF0A3C8C582C81C
:10028B00CCC583CCDFE9DEE7800D89828A83E493DA
:10029B00A3F608DFF9ECFAA9F0EDFB2289828A8339
:1002AB00ECFAE0A3C8C582C8CCC583CCF0A3C8C503
:1002BB0082C8CCC583CCDFEADEE880DB89828A8307
:1002CB00E493A3F208DFF980CC88F0EF60010E4EC7
:1002DB0060C388F0ED2402B4040050B9F582EB241E
:1002EB0002B4040050AF23234582239002547312AF
:1002FB000820E516B408028F15C3E51664809480B8
:10030B0050030203A112087440FB12087440EAAFB9
:10031B00161516EF14B4080050DF90033375F00375
:10032B00A4C58325F0C5837302034B020353020359
:10033B005902036102036B02037602037F020389F6
:10034B00E515540125E0803FE51554028039E5158C
:10035B005404C3138031E51554081313543F8027FD
:10036B00E5155410131313541F801CE5155420C4AA
:10037B00540F8013E5155440C41354078009E51539
:10038B005480C413135403FF900009E054FD4FF045
:10039B0012000302030475160822787FE4F6D8FDD9
:1003AB007581200203EC0205C8E493A3F8E493A340
:1003BB004003F68001F208DFF48029E493A3F8549C
:1003CB0007240CC8C333C4540F4420C8834004F41F
:1003DB0056800146F6DFE4800B0102040810204032
:1003EB0080900743E47E019360BCA3FF543F30E54C
:1003FB0009541FFEE493A360010ECF54C025E060A7
:10040B00A840B8E493A3FAE493A3F8E493A3C8C574
:10041B0082C8CAC583CAF0A3C8C582C8CAC583CA65
:10042B00DFE9DEE780BE900000E014601F14603B44
:10043B0014604F2403706B1208A292031208A2409F
:10044B00591207B99000007401F080561208A2925D
:10045B00001208A240131208807F011207EF120846
:10046B00589000007402F08039802F1208A292017C
:10047B001208A2500B1207B99000007403F08022EF
:10048B0080181208A292021208A2500E120898129B
:10049B0007B9E4900000F07F0222E4900000F07FA7
:1004AB0005227F0122900001E014601F14603314B9
:1004BB0060472403705D1208A250501208A29203E9
:1004CB0012080E9000017401F080481208A250101F
:1004DB001208A2920012080E9000017402F08033F1
:1004EB0080291208A250101208A2920112080E9035
:1004FB0000017403F0801C80121208A2500D120828
:10050B00A29202E4900001F07F0622E4900001F039
:10051B007F05227F0422120874504FAF180518EF85
:10052B00B40F03E4F5181207FA4026E51770101202
:10053B000830400512089C800312089F05172212F1
:10054B000830400512089F800312089CE4F51780C1
:10055B0016AF170517EFC39404500302089C12083B
:10056B009CE4F51712084012082022900002E014B8
:10057B00601A1460271460342403703F1208A2928F
:10058B00031207B99000027401F0802F1208A29297
:10059B00001207B99000027402F0801F1208A29299
:1005AB00011207B99000027403F0800F1208A29297
:1005BB00021207B9E4900002F0D322C322E4F51231
:1005CB00120765C2A35388F7D2AFD2AF12087A12C3
:1005DB0008502082157D0F7FF01206D6E4FFFE0F28
:1005EB00BF00010EBEFFF8BFFFF512081750E31254
:1005FB00084812085F780A7C007D017E007F02129A
:10060B0002D40080CDC0E0C0F0C083C082C0D075E2
:10061B00D000C000C001C002C003C004C005C006AA
:10062B00C0077D2B7FFF12000E120521120781D010
:10063B0007D006D005D004D003D002D001D000D013
:10064B00D0D082D083D0F0D0E032C0E0C0F0C083F5
:10065B00C082C0D075D000C000C001C002C003C0B2
:10066B0004C005C006C0077D017F017E0012001E7D
:10067B00D007D006D005D004D003D002D001D000D3
:10068B00D0D0D082D083D0F0D0E032C0E0C0F0C068
:10069B0083C082C0D075D000C000C001C002C003AF
:1006AB00C004C005C006C0077D01E4FFFE12001E9A
:1006BB00D007D006D005D004D003D002D001D00093
:1006CB00D0D0D082D083D0F0D0E0328F138D1412E3
:1006DB00089C7F01EFC39406502FEF24FE6011148A
:1006EB00601714601D240370EB12079B7F0280E4DC
:1006FB00AF131202FA7F0380DBAF141202FA7F04EE
:10070B0080D21207AA7F0680CB2274FFFFFE200344
:10071B000F20000C3001093002067E007F01800F94
:10072B0030030C300009200106200203E4FEFFC257
:10073B0003C200C201C202220116080117000118F0
:10074B000041000600410000004100010041000291
:10075B000041000300410005070085A713E4F5A93C
:10076B001208661207D512086D1207C71208041279
:10077B0007E28513A7221208A2500C1208A8EFD388
:10078B0094FE50031208A51208A2400312089422EB
:10079B0012082012082812000312087440FB2212C0
:1007AB00082012083812000312087440FB227D96B1
:1007BB007FFF8F8D8D8B120016020890AF88758886
:1007CB0000758CFF758A2B8F8822E4F5A775A60818
:1007DB0075A72075CC082243F18075E4704388041B
:1007EB0075A80622BF010443E4802253E47F2290C4
:1007FB000009E01313543F1322758E0275891143C0
:10080B008810227D2B7FFF8F8D8D8B22900009E02E
:10081B00C4540F1322900009E054FEF022900009FB
:10082B00E04402F022900009E0C313132290000968
:10083B00E04404F022900009E054FBF02290000900
:10084B00E054EFF022E4900007F0A3F0225388F776
:10085B0043A804227B017A007907227597DE7597EE
:10086B00AD22E4F5A775E34022900009E01322E4E2
:10087B00900009F02212088602088CE4F58DF58BA6
:10088B002253A8F72243884022E4F5192253A8FBF0
:10089B0022D28022C28022A28722051922AF1922DE
:00000001FF
