:020000040000FA
:1000000002034590000AE04401F0220204F18F8CC3
:0A0010008D8A2202057543A808221C
:10001B000205B4E4F50EF50F8E0C8F0D900004E085
:10002B00B4070040030201FE90003AF8282873023F
:10003B00004F02006B0200800200800201A302014C
:10004B00DF0201BC12078EEFD3940140069000042F
:10005B007401F0E4900005F090000AF0E04401F028
:10006B001202AF900004EFF06405600302020390EC
:10007B00000704F02212049F40030202031205F250
:10008B008E0E8F0FE50FF47003E50EF47003020173
:10009B0094900006E0B40800400302015B9000AFAF
:1000AB00F82828730200C70200D70200E80200FB01
:1000BB0002010F020121020134020148E50F540134
:1000CB00FF900005E054FE4FF002015BE50F540179
:1000DB0025E0FF900005E054FD4FF08073E50F54D1
:1000EB000125E025E0FF900005E054FB4FF0806018
:1000FB00E50F540133333354F8FF900005E054F708
:10010B004FF0804CE50F5401C454F0FF900005E014
:10011B0054EF4FF0803AE50F5401C43354E0FF9095
:10012B000005E054DF4FF08027E50F5401C4333353
:10013B0054C0FF900005E054BF4FF08013E50F54FF
:10014B0001C43333335480FF900005E0547F4FF0EC
:10015B00900006E0FF14F0EF60030202037407F057
:10016B00900004E0B4020DA3E0900008F0900004AE
:10017B007403F022900005E0900009F090000474E5
:10018B0004F07D2B7FFF0206CC900004E09000076B
:10019B00F09000047405F0221203D1900004EFF0EC
:1001AB00BF05069000077404F0900004E06404603F
:1001BB0047E4900004F0A295B39295900007F012DB
:1001CB000762E4FF1206FE12077AF58890000AE038
:1001DB004410F022E4900004F0A284B3928412073E
:1001EB0062E4FF1206FE12077AF58890000AE044DB
:1001FB0008F022E4900004F022120726E516B4085A
:10020B00028F15C3E5166480948050030202AB1273
:10021B00075C40FB12075C40EAAF161516EF14B4EF
:10022B00080050DF90023D75F003A4C58325F0C58F
:10023B00837302025502025D02026302026B020229
:10024B0075020280020289020293E515540125E032
:10025B00803FE51554028039E5155404C3138031F2
:10026B00E51554081313543F8027E5155410131349
:10027B0013541F801CE5155420C4540F8013E5152F
:10028B005440C41354078009E5155480C413135408
:10029B0003FF90000AE054FD4FF012000302020E20
:1002AB0075160822900001E0B4010AA284B392846F
:1002BB001207889203900000E014601F14603B1437
:1002CB00604F240370711207889203120788405FF6
:1002DB001206C89000007401F0805C12078892002F
:1002EB0012078840131207627F011206FE12077A6B
:1002FB009000007402F0803F803512078892011243
:10030B000788500B1206C89000007403F0802880F9
:10031B001E12078892021207885014900001E00405
:10032B00F012077E1206C8E4900000F07F0222E470
:10033B00900000F07F05227F0122787FE4F6D8FD44
:10034B0075812002038C020620E493A3F8E493A3A7
:10035B004003F68001F208DFF48029E493A3F854FC
:10036B0007240CC8C333C4540F4420C8834004F47F
:10037B0056800146F6DFE4800B0102040810204092
:10038B008090064EE47E019360BCA3FF543F30E5A2
:10039B0009541FFEE493A360010ECF54C025E06007
:1003AB00A840B8E493A3FAE493A3F8E493A3C8C5D5
:1003BB0082C8CAC583CAF0A3C8C582C8CAC583CAC6
:1003CB00DFE9DEE780BE900002E014601E146031AE
:1003DB0014604A24037065120788505812078892DC
:1003EB000312071D90000274018028120788500F1A
:1003FB00120788920012071D90000274028014806D
:10040B00331207885015120788920112071D9000AE
:10041B00027403F0A296B39296802180171207887C
:10042B0050121207889202E4900002F0A296B39247
:10043B00967F0622E4900002F07F05227F042212B1
:10044B00075C504FAF180518EFB40F03E4F5181203
:10045B0007094026E5177010120736400512078270
:10046B0080031207850517221207364005120785F0
:10047B008003120782E4F5178016AF170517EFC339
:10048B0094045003020782120782E4F51712074601
:10049B0012072622900003E014601A1460271460E0
:1004AB00342403703F12078892031206C89000038E
:1004BB007401F0802F12078892001206C890000377
:1004CB007402F0801F12078892011206C890000375
:1004DB007403F0800F12078892021206C8E4900092
:1004EB0003F0D322C322C0E0C0F0C083C082C0D0CF
:1004FB0075D000C000C001C002C003C004C005C05D
:10050B0006C0077D2B7FFF12000E12044A120690C5
:10051B00D007D006D005D004D003D002D001D00034
:10052B00D0D0D082D083D0F0D0E0328F138D141284
:10053B0007827F01EFC39406502FEF24FE60111446
:10054B00601714601D240370EB1206AA7F0280E46F
:10055B00AF131202047F0380DBAF141202047F047B
:10056B0080D21206B97F0680CB22C0E0C0F0C083D8
:10057B00C082C0D075D000C000C001C002C003C093
:10058B0004C005C006C0077F017E0012001ED00705
:10059B00D006D005D004D003D002D001D000D0D0EB
:1005AB00D082D083D0F0D0E032C0E0C0F0C083C0A6
:1005BB0082C0D075D000C000C001C002C003C0040F
:1005CB00C005C006C007E4FFFE12001ED007D00610
:1005DB00D005D004D003D002D001D000D0D0D0822F
:1005EB00D083D0F0D0E03274FFFFFE20030F200049
:1005FB000C3001093002067E007F01800F30030CA6
:10060B00300009200106200203E4FEFFC203C200F2
:10061B00C201C20222E4F510120674C2A3D2AF20AB
:10062B0082FD7D0F7FF0120536E4F511F512C3E55F
:10063B001294FFE51194FF50E60512E51270EF05D9
:10064B001180EB011608011700011800410007008B
:10065B004100000041000100410002004100030085
:10066B0041000400410006070085A713E4F5A91219
:10067B00074E1206E41207551206D612071312067E
:10068B00F18513A722120788500C12078EEFD39413
:10069B00FE500312078B12078840031207762212B3
:1006AB00072612072E12000312075C40FB221207CB
:1006BB002612073E12000312075C40FB227D967F39
:1006CB00FF8F8D8D8B120016020772AF8875880015
:1006DB00758CFF758A2B8F8822E4F5A775A6087594
:1006EB00A72075CC082243F18075E470438804750C
:1006FB00A80622BF010443E4802253E47F2290002A
:10070B000AE01313543F1322758E02758911438827
:10071B0010227D2B7FFF8F8D8D8B2290000AE05452
:10072B00FEF02290000AE04402F02290000AE0C39F
:10073B0013132290000AE04404F02290000AE054C4
:10074B00FBF0227597DE7597AD22E4F5A775E340B4
:10075B002290000AE0132212076802076EE4F58D5F
:10076B00F58B2253A8F72243884022E4F519224344
:10077B00A8042253A8FB22D28022C28022A2872265
:06078B00051922AF19223E
:00000001FF
