:020000040000FA
:0A0000000201F5AF16EFC31313223F
:0F000B000203B68F8C8D8A2202043A431601221B
:10001B00020475E4F50AF50B900002E014601E145F
:10002B0060242402600302014512062CEFD39401D5
:10003B0040069000027401F0E4900004F01202817B
:10004B00900002EFF022120307400302014A120450
:10005B00E48E0A8F0BE50BF47003E50AF4700302D0
:10006B000143900005E0B40800400302012C90000E
:10007B0080F82828730200980200A80200B9020039
:10008B00CC0200E00200F2020105020119E50B545B
:10009B0001FF900004E054FE4FF002012CE50B54DD
:1000AB000125E0FF900004E054FD4FF08073E50B59
:1000BB00540125E025E0FF900004E054FB4FF08055
:1000CB0060E50B540133333354F8FF900004E054D4
:1000DB00F74FF0804CE50B5401C454F0FF90000433
:1000EB00E054EF4FF0803AE50B5401C43354E0FF7A
:1000FB00900004E054DF4FF08027E50B5401C4332C
:10010B003354C0FF900004E054BF4FF08013E50B55
:10011B005401C43333335480FF900004E0547F4FB9
:10012B00F0900005E0FF14F0EF7014007407F090EE
:10013B000004E0900003F0228000E4900002F02223
:10014B001205F4E512B408028F11C3E51264809412
:10015B008050030201F11205F840FB1205F840EA4A
:10016B00AF121512EF14B4080050DF90018475F034
:10017B0003A4C58325F0C5837302019C0201A4026D
:10018B0001AA0201B20201BC0201C70201D00201A5
:10019B00DAE511540125E0803FE51154028039E581
:1001AB00115404C3138031E51154081313543F80C9
:1001BB0027E5115410131313541F801CE511542001
:1001CB00C4540F8013E5115440C41354078009E540
:1001DB00115480C413135403FFE51654FD4FF51649
:1001EB0012001602015575120822787FE4F6D8FD2D
:1001FB0075812002023C0204B0E493A3F8E493A3BC
:10020B004003F68001F208DFF48029E493A3F8544D
:10021B0007240CC8C333C4540F4420C8834004F4D0
:10022B0056800146F6DFE4800B01020408102040E3
:10023B0080900548E47E019360BCA3FF543F30E5FA
:10024B0009541FFEE493A360010ECF54C025E06058
:10025B00A840B8E493A3FAE493A3F8E493A3C8C526
:10026B0082C8CAC583CAF0A3C8C582C8CAC583CA17
:10027B00DFE9DEE780BE900000E014601914603700
:10028B0014604924037072120626406D1205939078
:10029B0000007401802E12062640121205E87F0121
:1002AB001205BC120618900000740280171205E8A4
:1002BB00E4900000F08042120626503D1205939008
:1002CB0000007403F0A294B39294802D1206265072
:1002DB001312061C120593E4900000F0A294B39243
:1002EB00947F02221205E8E4FF1205BC12061812D5
:1002FB0005E8E4900000F0FF227F0122900001E06E
:10030B0014601914602514603724037047120626F5
:10031B0092031205939000017401801C1206269221
:10032B00001205939000017402800D1206269201B3
:10033B001205939000017403F0A294B3929480146D
:10034B001206269202120593E4900001F0A294B3D8
:10035B009294D322C3221205F8504FAF140514EF19
:10036B00B40F03E4F5141205D14026E513701012F7
:10037B0000034005120620800312062305132212E8
:10038B00000340051206238003120620E4F51380B8
:10039B0016AF130513EFC394045003020620120685
:1003AB0020E4F5131206041205F422C0E0C0F0C0DD
:1003BB0083C082C0D075D000C000C001C002C00392
:1003CB00C004C005C006C0077D2B7FFF12000E12B4
:1003DB00036112052ED007D006D005D004D003D070
:1003EB0002D001D000D0D0D082D083D0F0D0E03278
:1003FB008F0F8D101206207F01EFC39405502FEF46
:10040B0024FE601114601714601D240370EB120599
:10041B00757F0280E4AF0F12014B7F0380DBAF10BF
:10042B0012014B7F0480D21205847F0580CB22C042
:10043B00E0C0F0C083C082C0D075D000C000C00146
:10044B00C002C003C004C005C006C00712001ED006
:10045B0007D006D005D004D003D002D001D000D0F5
:10046B00D0D082D083D0F0D0E032C0E0C0F0C083D7
:10047B00C082C0D075D000C000C001C002C003C094
:10048B0004C005C006C00712001ED007D006D00559
:10049B00D004D003D002D001D000D0D0D082D083F2
:1004AB00D0F0D0E032E4F50C120512D2AF43F601D6
:1004BB00E4FF1205BC2082FD7D0F7FF01203FBE4ED
:1004CB00F50DF50EC3E50E94FFE50D940F50E60503
:1004DB000EE50E70EF050D80EB74FFFFFE20030F92
:1004EB0020000C3001093002067E007F01800F30A6
:1004FB00030C300009200106200203E4FEFFC203B7
:10050B00C200C201C2022285A70FE4F5A91205DAC7
:10051B001205AF1205E11205A11205C7120562857E
:10052B000FA722120626500C12062CEFD394FE5066
:10053B000312062912062640031206142201120882
:10054B0001130001140041000000410001004100B3
:10055B000200410005070043F18075E470438804F5
:10056B0075A80643B80443F204221205F41205FCE5
:10057B001200161205F840FB221205F412060012A7
:10058B0000161205F840FB227D957FFF8F8D8D8B1A
:10059B00120608020610AF88758800758CFF758AE5
:1005AB002B8F8822E4F5A775A60875A72075CC08B4
:1005BB0022BF010443E4802253E47F22758E02752F
:1005CB00891143881022AF16EF1313543F13227572
:1005DB0097DE7597AD22E4F5A775E340221205EE81
:1005EB0002060CE4F58DF58B225316FE22E516134D
:1005FB002243160222431604225316FB2243A80859
:10060B002253A8F72243884022E4F5152243A8047D
:10061B002253A8FB22D28022C28022A28722051558
:04062B0022AF1522C3
:00000001FF
