:020000040000FA
:0A000000020168AF0FEFC3131322D3
:10000B000202C78F8C8D8A220200C88F8D8D8B22A6
:10001B000201F4120475E509B408028F08C3E5095F
:10002B006480948050030200C412047940FB1204D4
:10003B007940EAAF091509EF14B4080050DF9000BE
:10004B005775F003A4C58325F0C5837302006F02B7
:10005B00007702007D02008502008F02009A0200E9
:10006B00A30200ADE508540125E0803FE5085402EA
:10007B008039E5085404C3138031E5085408131381
:10008B00543F8027E5085410131313541F801CE5AD
:10009B00085420C4540F8013E5085440C41354076C
:1000AB008009E5085480C413135403FFE50F54FD76
:1000BB004FF50F12047102002875090822C0E0C029
:1000CB00F0C083C082C0D075D000C000C001C00298
:1000DB00C003C004C005C006C0071204ADEFD39423
:1000EB000140211204A7401C900052E0701612042C
:1000FB00A792017F0112043F900053E0FF04F0EF41
:10010B00B4090100900052E0FF04F0EF640170327B
:10011B001204A79200E4FF12043F20011C300019C7
:10012B0012049D12046B7D2B7FFF120016120489A3
:10013B001204919000577402F0900052E4F0C20048
:10014B00C201D007D006D005D004D003D002D00115
:10015B00D000D0D0D082D083D0F0D0E032787FE402
:10016B00F6D8FD7581200201AF02034AE493A3F890
:10017B00E493A34003F68001F208DFF48029E493B3
:10018B00A3F85407240CC8C333C4540F4420C883AA
:10019B004004F456800146F6DFE4800B01020408AC
:1001AB00102040809003B1E47E019360BCA3FF5408
:1001BB003F30E509541FFEE493A360010ECF54C0FA
:1001CB0025E060A840B8E493A3FAE493A3F8E49382
:1001DB00A3C8C582C8CAC583CAF0A3C8C582C8CA8A
:1001EB00C583CADFE9DEE780BEC0E0C0F0C083C0D4
:1001FB0082C0D075D000C000C001C002C003C004D3
:10020B00C005C006C0077D957FFF120016900057F2
:10021B00E024FE7037A294B392941204A7E433FF48
:10022B00900056E0FE04F074082EF582E43400F5DD
:10023B0083EFF0900056E0B44812E4F012048DE422
:10024B00FF12043F120499900057E4F0D007D00638
:10025B00D005D004D003D002D001D000D0D0D082B2
:10026B00D083D0F0D0E032120479504FAF0B050B96
:10027B00EFB40F03E4F50B1204544026E50A70109B
:10028B0012000340051204A180031204A4050A22E4
:10029B0012000340051204A480031204A1E4F50A22
:1002AB008016AF0A050AEFC3940450030204A1128F
:1002BB0004A1E4F50A12048512047522C0E0C0F013
:1002CB00C083C082C0D075D000C000C001C002C0C6
:1002DB0003C004C005C006C0077D2B7FFF12000EB4
:1002EB0012027212037ED007D006D005D004D003C1
:1002FB00D002D001D000D0D0D082D083D0F0D0E0CB
:10030B00328F138D141204A1E4FFEFC39404502E0B
:10031B00EF14601114601714601D240370EC1204A9
:10032B00067F0180E5AF1312001E7F0280DCAF1445
:10033B0012001E7F0380D31204157F0480CC22E4AD
:10034B00F5101203D7D2AF43F601E4FF12043F209E
:10035B0082FDE4FD7FFF12030CE4F511F512C3E5FA
:10036B001294FFE511940F50E60512E51270EF059C
:10037B001180EB1204A75020050DE50DAE0C700299
:10038B00050C1464014E7010F50CF50D1204ADEF55
:10039B00D394FE50031204AA1204A74008E4F50CF0
:1003AB00F50D12049522010908010A00010B000248
:1003BB000C00004100570041005200410053004126
:1003CB0000540041005507410056000085A713E477
:1003DB00F5A912045D1204321204641204241204EF
:1003EB004A1203F38513A72243F18075E470438807
:1003FB000475A80643B80443F204221204751204D0
:10040B007D12047112047940FB22120475120481CF
:10041B0012047112047940FB22AF88758800758C29
:10042B00FF758A2B8F8822E4F5A775A60875A72080
:10043B0075CC0822BF010443E4802253E47F22756C
:10044B008E0275891143881022AF0FEF1313543F9F
:10045B0013227597DE7597AD22E4F5A775E340225D
:10046B00E4F58DF58B22430F0122530FFE22E50F8E
:10047B001322430F0222430F0422530FFB2243A8E4
:10048B00082253A8F72243884022E4F50E2243A802
:10049B00042253A8FB22D28022C28022A2872205EB
:0504AB000E22AF0E223D
:00000001FF
