:020000040000FA
:100000000202A5900009E04401F0220204C88F8C8E
:0A0010008D8A2202054C43A8082245
:10001B0002058BE4F50EF50F8E0C8F0D900003E0AF
:10002B00B4070040030201F490003AF82828730249
:10003B00004F02006B0200800200800201A302014C
:10004B00DC0201BC1207AEEFD39401400690000313
:10005B007401F0E4900004F0900009F0E04420F00B
:10006B00120331900003EFF0640560030201F99075
:10007B00000604F02212047640030201F912063046
:10008B008E0E8F0FE50FF47003E50EF47003020173
:10009B0094900005E0B40800400302015B9000AFB0
:1000AB00F82828730200C70200D70200E80200FB01
:1000BB0002010F020121020134020148E50F540134
:1000CB00FF900004E054FE4FF002015BE50F54017A
:1000DB0025E0FF900004E054FD4FF08073E50F54D2
:1000EB000125E025E0FF900004E054FB4FF0806019
:1000FB00E50F540133333354F8FF900004E054F709
:10010B004FF0804CE50F5401C454F0FF900004E015
:10011B0054EF4FF0803AE50F5401C43354E0FF9095
:10012B000004E054DF4FF08027E50F5401C4333354
:10013B0054C0FF900004E054BF4FF08013E50F5400
:10014B0001C43333335480FF900004E0547F4FF0ED
:10015B00900005E0FF14F0EF60030201F97407F063
:10016B00900003E0B4020DA3E0900007F0900003B1
:10017B007403F022900004E0900008F090000374E8
:10018B0004F07D2B7FFF0206D8900003E090000661
:10019B00F09000037405F0221203B0900003EFF00F
:1001AB00BF05069000067404F0900003E064046041
:1001BB003DE4900003F0900006F0120786E4FF1276
:1001CB00070A12076B900009E04410F0E054DFF0CF
:1001DB0022E4900003F0120786E4FF12070A1207CD
:1001EB006B900009E04408F022E4900003F0221227
:1001FB00073BE514B408028F13C3E51464809480A5
:10020B0050030202A112078040FB12078040EAAFA5
:10021B00141514EF14B4080050DF90023375F0037B
:10022B00A4C58325F0C5837302024B02025302025D
:10023B005902026102026B02027602027F020289FC
:10024B00E513540125E0803FE51354028039E51393
:10025B005404C3138031E51354081313543F802700
:10026B00E5135410131313541F801CE5135420C4AF
:10027B00540F8013E5135440C41354078009E5133E
:10028B005480C413135403FF900009E054FD4FF046
:10029B0012000302020475140822787FE4F6D8FDDD
:1002AB007581200202EC0205C9E493A3F8E493A341
:1002BB004003F68001F208DFF48029E493A3F8549D
:1002CB0007240CC8C333C4540F4420C8834004F420
:1002DB0056800146F6DFE4800B0102040810204033
:1002EB008090065EE47E019360BCA3FF543F30E533
:1002FB0009541FFEE493A360010ECF54C025E060A8
:10030B00A840B8E493A3FAE493A3F8E493A3C8C575
:10031B0082C8CAC583CAF0A3C8C582C8CAC583CA66
:10032B00DFE9DEE780BE900000E014601F14603B45
:10033B0014604F2403706B1207A892031207A84096
:10034B00591206D49000007401F080561207A8923F
:10035B00001207A840131207867F0112070A120723
:10036B006B9000007402F08039802F1207A8920165
:10037B001207A8500B1206D49000007403F08022D1
:10038B0080181207A892021207A8500E12079E128D
:10039B0006D4E4900000F07F0222E4900000F07F8E
:1003AB0005227F0122900001E014601F14603314BA
:1003BB0060472403705D1207A850501207A89203E0
:1003CB001207299000017401F080481207A8501001
:1003DB001207A892001207299000017402F08033D3
:1003EB0080291207A850101207A892011207299012
:1003FB0000017403F0801C80121207A8500D120725
:10040B00A89202E4900001F07F0622E4900001F034
:10041B007F05227F0422120780504FAF160516EF7F
:10042B00B40F03E4F5161207154026E515701012EC
:10043B00074B40051207A280031207A505152212D0
:10044B00074B40051207A580031207A2E4F51580A0
:10045B0016AF150515EFC3940450030207A212073C
:10046B00A2E4F51512075B12073B22900002E01481
:10047B00601A1460271460342403703F1207A8928B
:10048B00031206D49000027401F0802F1207A89279
:10049B00001206D49000027402F0801F1207A8927B
:1004AB00011206D49000027403F0800F1207A89279
:1004BB00021206D4E4900002F0D322C322C0E0C0A3
:1004CB00F0C083C082C0D075D000C000C001C00294
:1004DB00C003C004C005C006C0077D2B7FFF120000
:1004EB000E12042112069CD007D006D005D004D0E2
:1004FB0003D002D001D000D0D0D082D083D0F0D0A6
:10050B00E0328F118D121207A27F01EFC3940650B8
:10051B002FEF24FE601114601714601D240370EB81
:10052B001206B67F0280E4AF111201FA7F0380DB63
:10053B00AF121201FA7F0480D21206C57F0680CB60
:10054B0022C0E0C0F0C083C082C0D075D000C00014
:10055B00C001C002C003C004C005C006C0077F01B4
:10056B007E0012001ED007D006D005D004D003D0D9
:10057B0002D001D000D0D0D082D083D0F0D0E032E6
:10058B00C0E0C0F0C083C082C0D075D000C000C036
:10059B0001C002C003C004C005C006C007E4FFFED3
:1005AB0012001ED007D006D005D004D003D002D045
:1005BB0001D000D0D0D082D083D0F0D0E032E4F59F
:1005CB0010120680C2A35388F7D2AFD2AF20821588
:1005DB007D0F7FF012050DE4FFFE0FBF00010EBE75
:1005EB00FFF8BFFFF512073250E31207637FFF12CC
:1005FB0005FF80D98F111207A27F01EFC39406501C
:10060B0023EF24FD600E146014240370EE1206B663
:10061B007F0380E7AF111201FA7F0480DE1206C55B
:10062B007F0680D72274FFFFFE20030F20000C30C3
:10063B0001093002067E007F01800F30030C300071
:10064B0009200106200203E4FEFFC203C200C2011F
:10065B00C202220114080115000116004100060018
:10066B004100000041000100410002004100030075
:10067B00410005070085A711E4F5A91207721206C0
:10068B00F01207791206E212071F1206FD8511A759
:10069B00221207A8500C1207AEEFD394FE50031290
:1006AB0007AB1207A8400312079A2212073B120747
:1006BB004312000312078040FB2212073B12075321
:1006CB0012000312078040FB227D967FFF8F8D8DDA
:1006DB008B120016020796AF88758800758CFF7514
:1006EB008A2B8F8822E4F5A775A60875A72075CCF1
:1006FB00082243F18075E47043880475A80622BF75
:10070B00010443E4802253E47F22900009E0131399
:10071B00543F1322758E02758911438810227D2B4D
:10072B007FFF8F8D8D8B22900009E0C4540F132215
:10073B00900009E054FEF022900009E04402F02200
:10074B00900009E0C3131322900009E04404F02247
:10075B00900009E054FBF022900009E054EFF022E6
:10076B005388F743A804227597DE7597AD22E4F5FD
:10077B00A775E34022900009E0132212078C0207B1
:10078B0092E4F58DF58B2253A8F72243884022E49F
:10079B00F5172253A8FB22D28022C28022A28722E5
:0607AB00051722AF172222
:00000001FF
